{
  "_format": "hh-sol-artifact-1",
  "contractName": "SimpleVotingWeb3",
  "sourceName": "contracts/SimpleVotingWeb3.sol",
  "abi": [
    {
      "inputs": [],
      "stateMutability": "nonpayable",
      "type": "constructor"
    },
    {
      "inputs": [
        {
          "internalType": "address",
          "name": "owner",
          "type": "address"
        }
      ],
      "name": "OwnableInvalidOwner",
      "type": "error"
    },
    {
      "inputs": [
        {
          "internalType": "address",
          "name": "account",
          "type": "address"
        }
      ],
      "name": "OwnableUnauthorizedAccount",
      "type": "error"
    },
    {
      "anonymous": false,
      "inputs": [
        {
          "indexed": true,
          "internalType": "address",
          "name": "previousOwner",
          "type": "address"
        },
        {
          "indexed": true,
          "internalType": "address",
          "name": "newOwner",
          "type": "address"
        }
      ],
      "name": "OwnershipTransferred",
      "type": "event"
    },
    {
      "anonymous": false,
      "inputs": [
        {
          "indexed": true,
          "internalType": "uint256",
          "name": "proposalId",
          "type": "uint256"
        },
        {
          "indexed": false,
          "internalType": "string",
          "name": "title",
          "type": "string"
        },
        {
          "indexed": false,
          "internalType": "address",
          "name": "creator",
          "type": "address"
        },
        {
          "indexed": false,
          "internalType": "uint256",
          "name": "endTime",
          "type": "uint256"
        },
        {
          "indexed": false,
          "internalType": "uint256",
          "name": "createdAt",
          "type": "uint256"
        }
      ],
      "name": "ProposalCreated",
      "type": "event"
    },
    {
      "anonymous": false,
      "inputs": [
        {
          "indexed": true,
          "internalType": "uint256",
          "name": "proposalId",
          "type": "uint256"
        },
        {
          "indexed": false,
          "internalType": "uint256",
          "name": "winningOption",
          "type": "uint256"
        },
        {
          "indexed": false,
          "internalType": "uint256",
          "name": "winningVotes",
          "type": "uint256"
        }
      ],
      "name": "ProposalEnded",
      "type": "event"
    },
    {
      "anonymous": false,
      "inputs": [
        {
          "indexed": true,
          "internalType": "uint256",
          "name": "proposalId",
          "type": "uint256"
        },
        {
          "indexed": true,
          "internalType": "address",
          "name": "voter",
          "type": "address"
        },
        {
          "indexed": false,
          "internalType": "uint256",
          "name": "option",
          "type": "uint256"
        }
      ],
      "name": "Voted",
      "type": "event"
    },
    {
      "inputs": [
        {
          "internalType": "string",
          "name": "title",
          "type": "string"
        },
        {
          "internalType": "string",
          "name": "description",
          "type": "string"
        },
        {
          "internalType": "string[]",
          "name": "options",
          "type": "string[]"
        },
        {
          "internalType": "uint256",
          "name": "endTime",
          "type": "uint256"
        }
      ],
      "name": "createProposal",
      "outputs": [
        {
          "internalType": "uint256",
          "name": "",
          "type": "uint256"
        }
      ],
      "stateMutability": "nonpayable",
      "type": "function"
    },
    {
      "inputs": [
        {
          "internalType": "uint256",
          "name": "proposalId",
          "type": "uint256"
        }
      ],
      "name": "endProposal",
      "outputs": [],
      "stateMutability": "nonpayable",
      "type": "function"
    },
    {
      "inputs": [],
      "name": "getAllProposalIds",
      "outputs": [
        {
          "internalType": "uint256[]",
          "name": "",
          "type": "uint256[]"
        }
      ],
      "stateMutability": "view",
      "type": "function"
    },
    {
      "inputs": [
        {
          "internalType": "uint256",
          "name": "proposalId",
          "type": "uint256"
        }
      ],
      "name": "getFullProposal",
      "outputs": [
        {
          "internalType": "uint256",
          "name": "id",
          "type": "uint256"
        },
        {
          "internalType": "string",
          "name": "title",
          "type": "string"
        },
        {
          "internalType": "string",
          "name": "description",
          "type": "string"
        },
        {
          "internalType": "string[]",
          "name": "options",
          "type": "string[]"
        },
        {
          "internalType": "uint256[]",
          "name": "votes",
          "type": "uint256[]"
        },
        {
          "internalType": "uint256",
          "name": "endTime",
          "type": "uint256"
        },
        {
          "internalType": "uint256",
          "name": "createdAt",
          "type": "uint256"
        },
        {
          "internalType": "address",
          "name": "creator",
          "type": "address"
        },
        {
          "internalType": "enum SimpleVotingWeb3.ProposalStatus",
          "name": "status",
          "type": "uint8"
        },
        {
          "internalType": "uint256",
          "name": "totalVotes",
          "type": "uint256"
        }
      ],
      "stateMutability": "view",
      "type": "function"
    },
    {
      "inputs": [],
      "name": "getProposalCount",
      "outputs": [
        {
          "internalType": "uint256",
          "name": "",
          "type": "uint256"
        }
      ],
      "stateMutability": "view",
      "type": "function"
    },
    {
      "inputs": [
        {
          "internalType": "uint256",
          "name": "proposalId",
          "type": "uint256"
        },
        {
          "internalType": "address",
          "name": "voter",
          "type": "address"
        }
      ],
      "name": "getVoterInfo",
      "outputs": [
        {
          "internalType": "bool",
          "name": "voted",
          "type": "bool"
        },
        {
          "internalType": "uint256",
          "name": "chosenOption",
          "type": "uint256"
        }
      ],
      "stateMutability": "view",
      "type": "function"
    },
    {
      "inputs": [
        {
          "internalType": "uint256",
          "name": "",
          "type": "uint256"
        },
        {
          "internalType": "address",
          "name": "",
          "type": "address"
        }
      ],
      "name": "hasVoted",
      "outputs": [
        {
          "internalType": "bool",
          "name": "",
          "type": "bool"
        }
      ],
      "stateMutability": "view",
      "type": "function"
    },
    {
      "inputs": [],
      "name": "owner",
      "outputs": [
        {
          "internalType": "address",
          "name": "",
          "type": "address"
        }
      ],
      "stateMutability": "view",
      "type": "function"
    },
    {
      "inputs": [
        {
          "internalType": "uint256",
          "name": "",
          "type": "uint256"
        }
      ],
      "name": "proposals",
      "outputs": [
        {
          "internalType": "uint256",
          "name": "id",
          "type": "uint256"
        },
        {
          "internalType": "string",
          "name": "title",
          "type": "string"
        },
        {
          "internalType": "string",
          "name": "description",
          "type": "string"
        },
        {
          "internalType": "uint256",
          "name": "totalVotes",
          "type": "uint256"
        },
        {
          "internalType": "uint256",
          "name": "endTime",
          "type": "uint256"
        },
        {
          "internalType": "uint256",
          "name": "createdAt",
          "type": "uint256"
        },
        {
          "internalType": "address",
          "name": "creator",
          "type": "address"
        },
        {
          "internalType": "enum SimpleVotingWeb3.ProposalStatus",
          "name": "status",
          "type": "uint8"
        }
      ],
      "stateMutability": "view",
      "type": "function"
    },
    {
      "inputs": [],
      "name": "renounceOwnership",
      "outputs": [],
      "stateMutability": "nonpayable",
      "type": "function"
    },
    {
      "inputs": [
        {
          "internalType": "address",
          "name": "newOwner",
          "type": "address"
        }
      ],
      "name": "transferOwnership",
      "outputs": [],
      "stateMutability": "nonpayable",
      "type": "function"
    },
    {
      "inputs": [
        {
          "internalType": "uint256",
          "name": "proposalId",
          "type": "uint256"
        },
        {
          "internalType": "uint256",
          "name": "optionIndex",
          "type": "uint256"
        }
      ],
      "name": "vote",
      "outputs": [],
      "stateMutability": "nonpayable",
      "type": "function"
    },
    {
      "inputs": [
        {
          "internalType": "uint256",
          "name": "",
          "type": "uint256"
        },
        {
          "internalType": "address",
          "name": "",
          "type": "address"
        }
      ],
      "name": "voterChoice",
      "outputs": [
        {
          "internalType": "uint256",
          "name": "",
          "type": "uint256"
        }
      ],
      "stateMutability": "view",
      "type": "function"
    }
  ],
  "bytecode": "0x608060405234801561001057600080fd5b5033600073ffffffffffffffffffffffffffffffffffffffff168173ffffffffffffffffffffffffffffffffffffffff16036100845760006040517f1e4fbdf700000000000000000000000000000000000000000000000000000000815260040161007b919061019e565b60405180910390fd5b6100938161009960201b60201c565b506101b9565b60008060009054906101000a900473ffffffffffffffffffffffffffffffffffffffff169050816000806101000a81548173ffffffffffffffffffffffffffffffffffffffff021916908373ffffffffffffffffffffffffffffffffffffffff1602179055508173ffffffffffffffffffffffffffffffffffffffff168173ffffffffffffffffffffffffffffffffffffffff167f8be0079c531659141344cd1fd0a4f28419497f9722a3daafe3b4186f6b6457e060405160405180910390a35050565b600073ffffffffffffffffffffffffffffffffffffffff82169050919050565b60006101888261015d565b9050919050565b6101988161017d565b82525050565b60006020820190506101b3600083018461018f565b92915050565b61263b806101c86000396000f3fe608060405234801561001057600080fd5b50600436106100cf5760003560e01c80638da5cb5b1161008c578063c08cc02d11610066578063c08cc02d14610234578063efa90d3614610252578063f2fde38b14610270578063fbc759a11461028c576100cf565b80638da5cb5b146101de578063a07bd400146101fc578063b384abef14610218576100cf565b8063013cf08b146100d45780631c08ede81461010b57806343859632146101445780635147714114610174578063688c8eba146101a4578063715018a6146101d4575b600080fd5b6100ee60048036038101906100e991906115ec565b6102bd565b604051610102989796959493929190611770565b60405180910390f35b610125600480360381019061012091906115ec565b610442565b60405161013b9a999897969594939291906119c6565b60405180910390f35b61015e60048036038101906101599190611aaa565b6107bd565b60405161016b9190611b05565b60405180910390f35b61018e60048036038101906101899190611aaa565b6107ec565b60405161019b9190611b20565b60405180910390f35b6101be60048036038101906101b99190611d56565b610811565b6040516101cb9190611b20565b60405180910390f35b6101dc610ae8565b005b6101e6610afc565b6040516101f39190611e11565b60405180910390f35b610216600480360381019061021191906115ec565b610b25565b005b610232600480360381019061022d9190611e2c565b610c18565b005b61023c610fe2565b6040516102499190611b20565b60405180910390f35b61025a610fec565b6040516102679190611e6c565b60405180910390f35b61028a60048036038101906102859190611e8e565b61108f565b005b6102a660048036038101906102a19190611aaa565b611115565b6040516102b4929190611ebb565b60405180910390f35b60026020528060005260406000206000915090508060000154908060010180546102e690611f13565b80601f016020809104026020016040519081016040528092919081815260200182805461031290611f13565b801561035f5780601f106103345761010080835404028352916020019161035f565b820191906000526020600020905b81548152906001019060200180831161034257829003601f168201915b50505050509080600201805461037490611f13565b80601f01602080910402602001604051908101604052809291908181526020018280546103a090611f13565b80156103ed5780601f106103c2576101008083540402835291602001916103ed565b820191906000526020600020905b8154815290600101906020018083116103d057829003601f168201915b5050505050908060050154908060060154908060070154908060080160009054906101000a900473ffffffffffffffffffffffffffffffffffffffff16908060080160149054906101000a900460ff16905088565b600060608060608060008060008060008a60008111801561046557506001548111155b6104a4576040517f08c379a000000000000000000000000000000000000000000000000000000000815260040161049b90611f90565b60405180910390fd5b6000600260008e8152602001908152602001600020905060008160080160149054906101000a900460ff169050600060018111156104e5576104e46116f9565b5b8160018111156104f8576104f76116f9565b5b1480156105085750816006015442115b1561051257600190505b816000015482600101836002018460030185600401866006015487600701548860080160009054906101000a900473ffffffffffffffffffffffffffffffffffffffff16888a6005015488805461056890611f13565b80601f016020809104026020016040519081016040528092919081815260200182805461059490611f13565b80156105e15780601f106105b6576101008083540402835291602001916105e1565b820191906000526020600020905b8154815290600101906020018083116105c457829003601f168201915b505050505098508780546105f490611f13565b80601f016020809104026020016040519081016040528092919081815260200182805461062090611f13565b801561066d5780601f106106425761010080835404028352916020019161066d565b820191906000526020600020905b81548152906001019060200180831161065057829003601f168201915b5050505050975086805480602002602001604051908101604052809291908181526020016000905b828210156107415783829060005260206000200180546106b490611f13565b80601f01602080910402602001604051908101604052809291908181526020018280546106e090611f13565b801561072d5780601f106107025761010080835404028352916020019161072d565b820191906000526020600020905b81548152906001019060200180831161071057829003601f168201915b505050505081526020019060010190610695565b5050505096508580548060200260200160405190810160405280929190818152602001828054801561079257602002820191906000526020600020905b81548152602001906001019080831161077e575b505050505095509c509c509c509c509c509c509c509c509c509c505050509193959799509193959799565b60036020528160005260406000206020528060005260406000206000915091509054906101000a900460ff1681565b6004602052816000526040600020602052806000526040600020600091509150505481565b600061081b611232565b600283511015610860576040517f08c379a000000000000000000000000000000000000000000000000000000000815260040161085790611ffc565b60405180910390fd5b4282116108a2576040517f08c379a000000000000000000000000000000000000000000000000000000000815260040161089990612068565b60405180910390fd5b60018060008282546108b491906120b7565b92505081905550600060015490506000845167ffffffffffffffff8111156108df576108de611b45565b5b60405190808252806020026020018201604052801561090d5781602001602082028036833780820191505090505b509050604051806101400160405280838152602001888152602001878152602001868152602001828152602001600081526020018581526020014281526020013373ffffffffffffffffffffffffffffffffffffffff1681526020016000600181111561097d5761097c6116f9565b5b815250600260008481526020019081526020016000206000820151816000015560208201518160010190816109b29190612297565b5060408201518160020190816109c89190612297565b5060608201518160030190805190602001906109e592919061147b565b506080820151816004019080519060200190610a029291906114d4565b5060a0820151816005015560c0820151816006015560e082015181600701556101008201518160080160006101000a81548173ffffffffffffffffffffffffffffffffffffffff021916908373ffffffffffffffffffffffffffffffffffffffff1602179055506101208201518160080160146101000a81548160ff02191690836001811115610a9557610a946116f9565b5b0217905550905050817f331b791e5a0526c6d6f17a46c1d4139542c8579c245d9f8082d0b1462942f4fa88338742604051610ad39493929190612369565b60405180910390a28192505050949350505050565b610af0611232565b610afa60006112b9565b565b60008060009054906101000a900473ffffffffffffffffffffffffffffffffffffffff16905090565b610b2d611232565b80600081118015610b4057506001548111155b610b7f576040517f08c379a0000000000000000000000000000000000000000000000000000000008152600401610b7690611f90565b60405180910390fd5b8160006001811115610b9457610b936116f9565b5b6002600083815260200190815260200160002060080160149054906101000a900460ff166001811115610bca57610bc96116f9565b5b14610c0a576040517f08c379a0000000000000000000000000000000000000000000000000000000008152600401610c0190612401565b60405180910390fd5b610c138361137d565b505050565b81600081118015610c2b57506001548111155b610c6a576040517f08c379a0000000000000000000000000000000000000000000000000000000008152600401610c6190611f90565b60405180910390fd5b8260006001811115610c7f57610c7e6116f9565b5b6002600083815260200190815260200160002060080160149054906101000a900460ff166001811115610cb557610cb46116f9565b5b14610cf5576040517f08c379a0000000000000000000000000000000000000000000000000000000008152600401610cec90612401565b60405180910390fd5b836003600082815260200190815260200160002060003373ffffffffffffffffffffffffffffffffffffffff1673ffffffffffffffffffffffffffffffffffffffff16815260200190815260200160002060009054906101000a900460ff1615610d94576040517f08c379a0000000000000000000000000000000000000000000000000000000008152600401610d8b9061246d565b60405180910390fd5b60006002600087815260200190815260200160002090508060060154421115610e1f5760018160080160146101000a81548160ff02191690836001811115610ddf57610dde6116f9565b5b02179055506040517f08c379a0000000000000000000000000000000000000000000000000000000008152600401610e16906124d9565b60405180910390fd5b80600301805490508510610e68576040517f08c379a0000000000000000000000000000000000000000000000000000000008152600401610e5f90612545565b60405180910390fd5b60016003600088815260200190815260200160002060003373ffffffffffffffffffffffffffffffffffffffff1673ffffffffffffffffffffffffffffffffffffffff16815260200190815260200160002060006101000a81548160ff021916908315150217905550846004600088815260200190815260200160002060003373ffffffffffffffffffffffffffffffffffffffff1673ffffffffffffffffffffffffffffffffffffffff16815260200190815260200160002081905550806004018581548110610f3c57610f3b612565565b5b906000526020600020016000815480929190610f5790612594565b9190505550806005016000815480929190610f7190612594565b91905055503373ffffffffffffffffffffffffffffffffffffffff16867f1abe610cf2bf87e57dcc1181fcf5ac0934e843d8344ab9eed6e86c799f62585e87604051610fbd9190611b20565b60405180910390a380600601544210610fda57610fd98661137d565b5b505050505050565b6000600154905090565b60606000600154905060008167ffffffffffffffff81111561101157611010611b45565b5b60405190808252806020026020018201604052801561103f5781602001602082028036833780820191505090505b50905060005b828110156110865760018161105a91906120b7565b82828151811061106d5761106c612565565b5b6020026020010181815250508080600101915050611045565b50809250505090565b611097611232565b600073ffffffffffffffffffffffffffffffffffffffff168173ffffffffffffffffffffffffffffffffffffffff16036111095760006040517f1e4fbdf70000000000000000000000000000000000000000000000000000000081526004016111009190611e11565b60405180910390fd5b611112816112b9565b50565b6000808360008111801561112b57506001548111155b61116a576040517f08c379a000000000000000000000000000000000000000000000000000000000815260040161116190611f90565b60405180910390fd5b6003600086815260200190815260200160002060008573ffffffffffffffffffffffffffffffffffffffff1673ffffffffffffffffffffffffffffffffffffffff16815260200190815260200160002060009054906101000a900460ff169250826111d6576000611228565b6004600086815260200190815260200160002060008573ffffffffffffffffffffffffffffffffffffffff1673ffffffffffffffffffffffffffffffffffffffff168152602001908152602001600020545b9150509250929050565b61123a611473565b73ffffffffffffffffffffffffffffffffffffffff16611258610afc565b73ffffffffffffffffffffffffffffffffffffffff16146112b75761127b611473565b6040517f118cdaa70000000000000000000000000000000000000000000000000000000081526004016112ae9190611e11565b60405180910390fd5b565b60008060009054906101000a900473ffffffffffffffffffffffffffffffffffffffff169050816000806101000a81548173ffffffffffffffffffffffffffffffffffffffff021916908373ffffffffffffffffffffffffffffffffffffffff1602179055508173ffffffffffffffffffffffffffffffffffffffff168173ffffffffffffffffffffffffffffffffffffffff167f8be0079c531659141344cd1fd0a4f28419497f9722a3daafe3b4186f6b6457e060405160405180910390a35050565b600060026000838152602001908152602001600020905060018160080160146101000a81548160ff021916908360018111156113bc576113bb6116f9565b5b021790555060008060005b836004018054905081101561143257818460040182815481106113ed576113ec612565565b5b906000526020600020015411156114255780925083600401818154811061141757611416612565565b5b906000526020600020015491505b80806001019150506113c7565b50837f9ee8bec37bb3c732d094994cb581639298fdb3e9261cf4077d8e149709ee90f883836040516114659291906125dc565b60405180910390a250505050565b600033905090565b8280548282559060005260206000209081019282156114c3579160200282015b828111156114c25782518290816114b29190612297565b509160200191906001019061149b565b5b5090506114d09190611521565b5090565b828054828255906000526020600020908101928215611510579160200282015b8281111561150f5782518255916020019190600101906114f4565b5b50905061151d9190611545565b5090565b5b8082111561154157600081816115389190611562565b50600101611522565b5090565b5b8082111561155e576000816000905550600101611546565b5090565b50805461156e90611f13565b6000825580601f10611580575061159f565b601f01602090049060005260206000209081019061159e9190611545565b5b50565b6000604051905090565b600080fd5b600080fd5b6000819050919050565b6115c9816115b6565b81146115d457600080fd5b50565b6000813590506115e6816115c0565b92915050565b600060208284031215611602576116016115ac565b5b6000611610848285016115d7565b91505092915050565b611622816115b6565b82525050565b600081519050919050565b600082825260208201905092915050565b60005b83811015611662578082015181840152602081019050611647565b60008484015250505050565b6000601f19601f8301169050919050565b600061168a82611628565b6116948185611633565b93506116a4818560208601611644565b6116ad8161166e565b840191505092915050565b600073ffffffffffffffffffffffffffffffffffffffff82169050919050565b60006116e3826116b8565b9050919050565b6116f3816116d8565b82525050565b7f4e487b7100000000000000000000000000000000000000000000000000000000600052602160045260246000fd5b60028110611739576117386116f9565b5b50565b600081905061174a82611728565b919050565b600061175a8261173c565b9050919050565b61176a8161174f565b82525050565b600061010082019050611786600083018b611619565b8181036020830152611798818a61167f565b905081810360408301526117ac818961167f565b90506117bb6060830188611619565b6117c86080830187611619565b6117d560a0830186611619565b6117e260c08301856116ea565b6117ef60e0830184611761565b9998505050505050505050565b600081519050919050565b600082825260208201905092915050565b6000819050602082019050919050565b600082825260208201905092915050565b600061184482611628565b61184e8185611828565b935061185e818560208601611644565b6118678161166e565b840191505092915050565b600061187e8383611839565b905092915050565b6000602082019050919050565b600061189e826117fc565b6118a88185611807565b9350836020820285016118ba85611818565b8060005b858110156118f657848403895281516118d78582611872565b94506118e283611886565b925060208a019950506001810190506118be565b50829750879550505050505092915050565b600081519050919050565b600082825260208201905092915050565b6000819050602082019050919050565b61193d816115b6565b82525050565b600061194f8383611934565b60208301905092915050565b6000602082019050919050565b600061197382611908565b61197d8185611913565b935061198883611924565b8060005b838110156119b95781516119a08882611943565b97506119ab8361195b565b92505060018101905061198c565b5085935050505092915050565b6000610140820190506119dc600083018d611619565b81810360208301526119ee818c61167f565b90508181036040830152611a02818b61167f565b90508181036060830152611a16818a611893565b90508181036080830152611a2a8189611968565b9050611a3960a0830188611619565b611a4660c0830187611619565b611a5360e08301866116ea565b611a61610100830185611761565b611a6f610120830184611619565b9b9a5050505050505050505050565b611a87816116d8565b8114611a9257600080fd5b50565b600081359050611aa481611a7e565b92915050565b60008060408385031215611ac157611ac06115ac565b5b6000611acf858286016115d7565b9250506020611ae085828601611a95565b9150509250929050565b60008115159050919050565b611aff81611aea565b82525050565b6000602082019050611b1a6000830184611af6565b92915050565b6000602082019050611b356000830184611619565b92915050565b600080fd5b600080fd5b7f4e487b7100000000000000000000000000000000000000000000000000000000600052604160045260246000fd5b611b7d8261166e565b810181811067ffffffffffffffff82111715611b9c57611b9b611b45565b5b80604052505050565b6000611baf6115a2565b9050611bbb8282611b74565b919050565b600067ffffffffffffffff821115611bdb57611bda611b45565b5b611be48261166e565b9050602081019050919050565b82818337600083830152505050565b6000611c13611c0e84611bc0565b611ba5565b905082815260208101848484011115611c2f57611c2e611b40565b5b611c3a848285611bf1565b509392505050565b600082601f830112611c5757611c56611b3b565b5b8135611c67848260208601611c00565b91505092915050565b600067ffffffffffffffff821115611c8b57611c8a611b45565b5b602082029050602081019050919050565b600080fd5b6000611cb4611caf84611c70565b611ba5565b90508083825260208201905060208402830185811115611cd757611cd6611c9c565b5b835b81811015611d1e57803567ffffffffffffffff811115611cfc57611cfb611b3b565b5b808601611d098982611c42565b85526020850194505050602081019050611cd9565b5050509392505050565b600082601f830112611d3d57611d3c611b3b565b5b8135611d4d848260208601611ca1565b91505092915050565b60008060008060808587031215611d7057611d6f6115ac565b5b600085013567ffffffffffffffff811115611d8e57611d8d6115b1565b5b611d9a87828801611c42565b945050602085013567ffffffffffffffff811115611dbb57611dba6115b1565b5b611dc787828801611c42565b935050604085013567ffffffffffffffff811115611de857611de76115b1565b5b611df487828801611d28565b9250506060611e05878288016115d7565b91505092959194509250565b6000602082019050611e2660008301846116ea565b92915050565b60008060408385031215611e4357611e426115ac565b5b6000611e51858286016115d7565b9250506020611e62858286016115d7565b9150509250929050565b60006020820190508181036000830152611e868184611968565b905092915050565b600060208284031215611ea457611ea36115ac565b5b6000611eb284828501611a95565b91505092915050565b6000604082019050611ed06000830185611af6565b611edd6020830184611619565b9392505050565b7f4e487b7100000000000000000000000000000000000000000000000000000000600052602260045260246000fd5b60006002820490506001821680611f2b57607f821691505b602082108103611f3e57611f3d611ee4565b5b50919050565b7f50726f706f73616c20646f6573206e6f74206578697374000000000000000000600082015250565b6000611f7a601783611633565b9150611f8582611f44565b602082019050919050565b60006020820190508181036000830152611fa981611f6d565b9050919050565b7f4174206c656173742032206f7074696f6e732072657175697265640000000000600082015250565b6000611fe6601b83611633565b9150611ff182611fb0565b602082019050919050565b6000602082019050818103600083015261201581611fd9565b9050919050565b7f456e642074696d65206d75737420626520696e20746865206675747572650000600082015250565b6000612052601e83611633565b915061205d8261201c565b602082019050919050565b6000602082019050818103600083015261208181612045565b9050919050565b7f4e487b7100000000000000000000000000000000000000000000000000000000600052601160045260246000fd5b60006120c2826115b6565b91506120cd836115b6565b92508282019050808211156120e5576120e4612088565b5b92915050565b60008190508160005260206000209050919050565b60006020601f8301049050919050565b600082821b905092915050565b60006008830261214d7fffffffffffffffffffffffffffffffffffffffffffffffffffffffffffffffff82612110565b6121578683612110565b95508019841693508086168417925050509392505050565b6000819050919050565b600061219461218f61218a846115b6565b61216f565b6115b6565b9050919050565b6000819050919050565b6121ae83612179565b6121c26121ba8261219b565b84845461211d565b825550505050565b600090565b6121d76121ca565b6121e28184846121a5565b505050565b5b81811015612206576121fb6000826121cf565b6001810190506121e8565b5050565b601f82111561224b5761221c816120eb565b61222584612100565b81016020851015612234578190505b61224861224085612100565b8301826121e7565b50505b505050565b600082821c905092915050565b600061226e60001984600802612250565b1980831691505092915050565b6000612287838361225d565b9150826002028217905092915050565b6122a082611628565b67ffffffffffffffff8111156122b9576122b8611b45565b5b6122c38254611f13565b6122ce82828561220a565b600060209050601f83116001811461230157600084156122ef578287015190505b6122f9858261227b565b865550612361565b601f19841661230f866120eb565b60005b8281101561233757848901518255600182019150602085019450602081019050612312565b868310156123545784890151612350601f89168261225d565b8355505b6001600288020188555050505b505050505050565b60006080820190508181036000830152612383818761167f565b905061239260208301866116ea565b61239f6040830185611619565b6123ac6060830184611619565b95945050505050565b7f50726f706f73616c206973206e6f742061637469766500000000000000000000600082015250565b60006123eb601683611633565b91506123f6826123b5565b602082019050919050565b6000602082019050818103600083015261241a816123de565b9050919050565b7f416c726561647920766f746564206f6e20746869732070726f706f73616c0000600082015250565b6000612457601e83611633565b915061246282612421565b602082019050919050565b600060208201905081810360008301526124868161244a565b9050919050565b7f566f74696e6720706572696f642068617320656e646564000000000000000000600082015250565b60006124c3601783611633565b91506124ce8261248d565b602082019050919050565b600060208201905081810360008301526124f2816124b6565b9050919050565b7f496e76616c6964206f7074696f6e20696e646578000000000000000000000000600082015250565b600061252f601483611633565b915061253a826124f9565b602082019050919050565b6000602082019050818103600083015261255e81612522565b9050919050565b7f4e487b7100000000000000000000000000000000000000000000000000000000600052603260045260246000fd5b600061259f826115b6565b91507fffffffffffffffffffffffffffffffffffffffffffffffffffffffffffffffff82036125d1576125d0612088565b5b600182019050919050565b60006040820190506125f16000830185611619565b6125fe6020830184611619565b939250505056fea264697066735822122076742c4890067201266e7bfb1ced4e3c43a7967277e4b67cb016d5190d9fb96c64736f6c634300081c0033",
  "linkReferences": {},
  "deployedLinkReferences": {}
}